:1000000018308A000028000053284F19BA126C32A9
:10001000200083162D181028831208121228831628
:10002000831208168316AD181928831288121B280C
:1000300083168312881683162D192228831208131B
:1000400024288316831208178316AD192B288312D0
:1000500088132D288316831288170800AC3084007B
:1000600083130008031941280230F800F701F70B49
:100070003728F80B36289730F700F70B3D28800B10
:100080003428080088154428881101308316AC00F4
:1000900083122E20080083162B0EF7000F30F70571
:1000A00077080F39AC00AD00831209204220831677
:1000B0002B080F39AC00AD00831209204220080044
:1000C0008316AD0183120920C8308316AC00831259
:1000D0002E20081103308316AD0083120920422020
:1000E0004220422002308316AD00831209204220B4
:1000F0002C308316AB0083124B200C308316AB00E0
:1001000083124B2006308316AB0083124B20013044
:100110008316AB0083124B208A150A165F2808301D
:10012000F80000008711831687110000B00D8312BC
:100130000712031C9E288316071683120318A32890
:10014000831607128312831687158312871DA6282C
:10015000F80B9128000087118316871100000716FD
:100160000000000087158312871DB428F8010000E5
:10017000071A7814871183168711831207128316C2
:100180000712831208008316071600008715000067
:100190008312071283160712000083128711831639
:1001A0008711AE30B00083128F206E088316B00026
:1001B00083128F206F088316B00083128F2083165E
:1001C0000712000087158312871DE4280000E82825
:1001D0000000831607160000831208000930EE00A5
:1001E0004030EF00C32064308316AC0083122E2011
:1001F0000830EE000F30EF00C3200930EE0003306E
:10020000EF00C3200A30EE007830EF00C3200C303E
:10021000EE002430EF00C3200D30EE002430EF005C
:10022000C3200430EE00EF01C3200530EE00EF01E3
:10023000C3200630EE00EF01C320A701A601A901EB
:10024000A801A4102411AA01AB01AC01ED016D08B5
:10025000073C031C40296D0DF700F70DFC30F70536
:1002600077082D3E84008313840A840A840A80015F
:10027000840380018403800184038001ED0A27291F
:10028000CD018A150A166D288A150A16722883165A
:10029000B201B101B001AF01831285108316851040
:1002A000B501B40105148312051C6D295729831665
:1002B000B40A0319B50A3508123C03186B29FF3A32
:1002C000031D66293408883C03186B29F701F801DF
:1002D000F901FA01A729522983128316B3013308C1
:1002E000173C031C932983128514831685107829E3
:1002F0000310AF0DB00DB10DB20D83128510831632
:100300008510822905148312051C9029013083165B
:10031000AF070318B00A0319B10A0319B20A83120E
:100320008316B30A6F2983128514831685109829C2
:100330008030B10683128510831685109F292F08FF
:10034000F7003008F8003108F9003208FA0083128B
:1003500008008318AE29183084008317F701F801CC
:10036000F901FA010317980199019A019B011708F5
:100370001604150414040319ED2920309C00031001
:10038000900D910D920D930D980D990D9A0D9B0D59
:1003900017081B02031DD62916081A02031DD629A9
:1003A00015081902031DD62914081802031CE72991
:1003B000140898021508031C150F99021608031C4F
:1003C000160F9A021708031C170F9B020314F70D50
:1003D000F80DF90DFA0D9C0BBF2918088000840A4E
:1003E00019088000840A1A088000840A1B0880000B
:1003F000031308008316A801A701A601A501AA01FD
:10040000A90129081D3C031C312A831247217A08BF
:100410008316AE007908AD007808AC007708AB0011
:10042000AB08031D1C2AAC08031D1C2AAD08031DC4
:100430001C2AAE0803192B2A2B08A5072C08031821
:100440002C0FA6072D0803182D0FA7072E08031839
:100450002E0FA807AA0A2130F700F70B2D2AA90AA8
:10046000012AAA080319592A83102808831203179E
:100470009300831603132708831203179200831631
:10048000031326088312031791008316031325080C
:1004900083120317900097019601950183160313A9
:1004A0002A088312031794000313A9215E2A5E2AE7
:1004B0008316F701F801F901FA0183120800FA2105
:1004C0007808CF007708CE000130D400D5010800AD
:1004D00083162008A100AB0083124B2008000815EA
:1004E00083162A08AB0083124B20081108008316DC
:1004F0002508AC002908AC06AC1F832A03110310A1
:10050000A51B0314B62A2508AC002808AD00240852
:10051000AD020319912AAC1FB62A0308013A8300E1
:10052000B62A2908AD002508AD0203199D2AAC1F83
:10053000B62A0308013A8300B62A2A08AD00260825
:10054000AD020319A92AAC1FB62A0308013A830099
:10055000B62A2B08AD002708AD020319B52AAC1F37
:10056000B62A0308013A8300B62A03108312080052
:100570008E30F70083162108F8002008F900FA01F0
:10058000F808031DCD2A7908F800F9010830F702B0
:10059000F808031DCD2AF701D52A0310F81BD42A29
:1005A000F90DF80DF703CD2AF8138312080083160E
:1005B000200803199D2BAC00240803199D2BAC02C5
:1005C000031CE72A7F30AC0703189D2BED2A8130EE
:1005D000AC02031C9D2B03199D2B2C08F700F8017E
:1005E000F901FA01AB012108AA00AA172208A90003
:1005F0002308A8001930AC002708A8020318102B04
:100600000130A9020318102BAA020318102BAB0209
:100610000318102BAB0AAA0AA90A2708A807422B1D
:100620002608A90203182B2B0130AA0203182B2B32
:10063000AB0203182B2BAB0AAA0A2608A907270826
:10064000A807031C422BA90A031D422BAA0A031D5B
:10065000422BAB0A422B25088038AA020318412BF3
:100660000130AB020318412BAB0A25088038AA07DA
:100670002608A907031C1F2BAA0A031D1F2BAB0A60
:100680001F2B7A14AC0B452B502B0310A80DA90D72
:10069000AA0DAB0D0310FA0DF90DF80DAD0DFC2AE6
:1006A0002D1C582B0310F80CF90CFA0CAD0C5B2B1D
:1006B000F70303199D2BAD1B842B0310A80DA90D67
:1006C000AA0DAB0D2708A8020318702B0130A90250
:1006D0000318702BAA020318702BAB02031C932B78
:1006E0002608A90203187B2B0130AA0203187B2BD2
:1006F000AB02031C932B25088038AA020318842B15
:100700000130AB02031C932BFA0A031D932BF90A49
:10071000031D932BF80A031D932BF70A03199D2B36
:10072000F80CF90CFA0C2108AC002508AC06AC1F3B
:100730009B2BF817A12BF813A12BF701F801F90156
:10074000FA018312080070088316A70083126F084D
:100750008316A60083126E088316A50083126D0807
:100760008316A400AB01AA01A901A8018312772274
:100770000318BB2B03191F2CFA217808F200770805
:10078000F1004E087102F3007208F4004F08031CD8
:100790004F0FF402F308031DD02BF4080319002CAB
:1007A00074088316A1007308A0008312B8227A0887
:1007B000FE007908FD007808FC007708FB007A0845
:1007C0008316A3007908A2007808A1007708A0008A
:1007D0007008A70083126F088316A60083126E08A4
:1007E0008316A50083126D088316A4008312D722F6
:1007F0007A08D3007908D2007808D1007708D000B1
:100800008316A701A601A501A4017008AB008312FD
:100810006F088316AA0083126E088316A90083123C
:100820006D088316A80083127722031C1F2CF3087F
:10083000031D1D2CF40803191F2C0230D4008A1547
:100840000A16832A831607160000871500008312F4
:10085000071283160712000083128711831687116F
:1008600083122410AE308316B00083128F207808D4
:100870000319241483160712000087158312871D9D
:100880003F2C0000432C0000831607160000831243
:100890002418742CA101A001A301A201A501A701A4
:1008A000A601A901A801A4102411AA01AB01AC0161
:1008B000F5017508073C031C722C750DF700F70D48
:1008C000FC30F70577082D3E84008313840A840AE0
:1008D000840A8001840380018403800184038001F1
:1008E000F50A592CCD01052F8316A6016D30A50000
:1008F000A8017130A70007160000871500008312B9
:1009000007128316071200008312871183168711BE
:10091000AE30B00083128F2007308316B0008312F0
:100920008F20831607160000871500008312871D8D
:10093000972C071283160712000083128711831663
:100940008711AF30B00083128F208316AF012F08BC
:10095000053C031CEA2CA9302F07840083132F08C1
:10096000043C0318B52C0030B62C0130B20032081C
:10097000F7000830B4007708B500071600008715A7
:100980008312871DC12C071A0314071E0310F80DCC
:10099000000083168711831287118316B40BBD2CB8
:1009A000071600008312071283163508031D07126D
:1009B000000087158312871DDB2C0000871183162A
:1009C000871100008312071283160712780880002F
:1009D000AF0AA72C0712000087158312871DEE2C83
:1009E0000000F22C0000831607160000290883126D
:1009F000A500831625088400831326188317B501E4
:100A0000B401B3012908B2003308B5002908B400C5
:100A1000B201B301BA01B901B801F7017708B20414
:100A20002A08B3043808B4043908B50432082B0482
:100A3000F70077088000840A33088000840A3408AD
:100A40008000840A35088000270884008313281852
:100A50008317B501B401B3012C08B2003308B50007
:100A60002C08B400B201B301BA01B901B801F70111
:100A70007708B2042D08B3043808B4043908B50463
:100A800032082E04F70077088000840A33088000BB
:100A9000840A34088000840A350880002608FA0099
:100AA000250884008313261883170008F700840A9A
:100AB0000008F800840A00080339F900840AFA01E2
:100AC000FD30840777088000840A78088000840A53
:100AD00079088000840A7A0880002808FA0027082C
:100AE00084008313281883170008F700840A00087D
:100AF000F800840A00080339F900840AFA01FD307D
:100B0000840777088000840A78088000840A7908BE
:100B10008000840A7A088000F008031D952D831256
:100B20006F08033C03189C2D8316F00103308312D9
:100B3000EF00FF30EE00ED00F408031DA32D730855
:100B4000033C0318A92DF4010330F300FF30F20039
:100B5000F100700CFA006F0CF9006E0CF8006D0CCF
:100B6000F700FA0CF90CF80CF70C3F30FA0578088E
:100B7000A1007708A000740CFA00730CF900720C45
:100B8000F800710CF700FA0CF90CF80CF70C3F3078
:100B9000FA057808A3007708A2002108023C031890
:100BA000EB2DFF3A031DD82D2008203C0318EB2D18
:100BB0002308023C0318EB2DFF3A031DE32D220806
:100BC000203C0318EB2DA418E92DA4142411AA012C
:100BD000AB01AC01142EAC0A2C08053C0318142EF2
:100BE000A4102411A701A601A901A801AA01AB0123
:100BF000AC01F6017608073C031C132E760DF700B6
:100C0000F70DFC30F70577082D3E84008313840A26
:100C1000840A840A800184038001840380018403A0
:100C20008001F60AFA2DCD01A41C052F4D0DF70009
:100C3000F70DFC30F70577082D3E84008313840AF6
:100C4000840A840A800184038001840323088000CD
:100C500084032208800001304D070739CD00CD08FC
:100C6000031D342E241D2415241D052FFE01FD0116
:100C7000FC01FB018316A0012008073C031C642E25
:100C8000200DF700F70DFC30F70577082D3E8400A6
:100C900083130008F700840A0008F800840A00089B
:100CA000F900840A0008FA007708FB07780803189F
:100CB000780FFC0779080318790FFD077A080318E5
:100CC0007A0FFE07A00A3C2E7E0CA4007D0CA30028
:100CD0007C0CA2007B0CA100A40CA30CA20CA10C08
:100CE000A40CA30CA20CA10C1F30A4058312AA0A09
:100CF000AB0A2A08003C0318BF2E8314A5308400D9
:100D00008313831624088312031793008316031397
:100D100023088312031792008316031322088312F9
:100D20000317910083160313210883120317900001
:100D30009701960195011A3094000313A921831697
:100D40002608F800463025078312A6007808A70079
:100D50000318A70AA708031DB42E2608453C031C48
:100D6000B42EA7014630A600A708031DBB2E2608F7
:100D70005F3C0318BE2EA7015F30A600AA012B0816
:100D8000003C0318052F8314A530840083138316B9
:100D90002408831203179300831603132308831276
:100DA000031792008316031322088312031791007E
:100DB00083160313210883120317900097019601ED
:100DC0009501033094000313A92183162608F80027
:100DD000613025078312A8007808A9000318A90A22
:100DE000A908031DFA2E2808603C031CFA2EA9014D
:100DF0006130A800A908031D012F2808633C0318CF
:100E0000042FA9016330A800AB018A150A169C2A99
:100E1000F101F201F301F401F501003083168600BF
:100E20008312861014308316AC0083122E20861491
:100E30001A30F700F70B1A2F0000033083168600D4
:100E4000FC01FB018312861C382F262FFB0A031995
:100E5000FC0A7C08003C0318372FFF3A031D342F8F
:100E60007B08F43C0318372F0030F800EB2F232FBA
:100E7000FC01FB0186184F2F3D2FFB0A0319FC0ACA
:100E80007C08003C03184E2FFF3A031D4B2F7B08B4
:100E9000F43C03184E2F0030F800EB2F3A2FFC01E2
:100EA000FB01861C662F542FFB0A0319FC0A7C08E1
:100EB000003C0318652FFF3A031D622F7B08F43CAA
:100EC0000318652F0030F800EB2F512FF60176083C
:100ED000043C031CBC2FFD017D08073C031CBA2FFA
:100EE000FC01FB018618872F752FFB0A0319FC0AEA
:100EF0007C08003C0318862FFF3A031D832F7B08D4
:100F0000F43C0318862F0030F800EB2F722F1A30B4
:100F1000F700F70B892F0000861CA12F7130760790
:100F2000840083137D08073CF8000130F700F808BF
:100F300003199E2F0310F70DF80B9A2F7708000462
:100F40008000FC01FB01861CB82FA62FFB0A0319A9
:100F5000FC0A7C08003C0318B72FFF3A031DB42F8E
:100F60007B08F43C0318B72F0030F800EB2FA32FB9
:100F7000FD0A6C2FF60A672F720871077307740752
:100F800075020319C62F0030F800EB2FF108031D7E
:100F9000CF2FF308031DCF2F0030F800EB2F73087D
:100FA000503C0318D52F5030F3007108643C0318EF
:100FB000DB2F6430F1006F088400831370188317EF
:100FC000710880006D08840083136E1883177308FE
:100FD00080000130F8008A150A16B62A58088400E5
:100FE000831359188317031710088000840A80019F
:0A0FF0000313D80A0319D90A0800F8
:10100000F801F901F701FA017208031D0A287108B5
:10101000031924281030F3000310EF0DF00DF70D25
:10102000FA0D72087A02031D172871087702031C53
:1010300020287108F702031CFA037208FA0203144D
:10104000F80DF90DF30B0C2808006D088316A000AD
:101050008A118312FA218A1578088316A20077086C
:10106000A10083124E0883162102A3002208A400C7
:1010700083124F08031C4F0F3E2841288316A402F9
:10108000831283162308F8002408F9007908A100C8
:101090007808A0008A118312B8228A157A08F50010
:1010A0007908F4007808F3007708F20053088316F3
:1010B000A700831252088316A600831251088316D4
:1010C000A500831250088316A400AB01AA01A90150
:1010D000A8018A11831277228A15031D7528D4016D
:1010E000F701F801F901FA01A12A75088316A30096
:1010F0007408A2007308A1007208A00083125308AC
:101100008316A700831252088316A6008312510883
:101110008316A500831250088316A4008A11831237
:10112000D7228A157A08F1007908F0007808EF00D4
:101130007708EE007108FE007008FD006F08FC00E3
:101140006E08FB008316A701A6017C30A500833042
:10115000A4007108AB007008AA0083126F08831600
:10116000A90083126E088316A8008A1183127722C1
:101170008A15031C4D2971088316A3007008A2006C
:1011800083126F088316A10083126E088316A000D5
:101190009830A7006E30A6001230A5007F30A40062
:1011A000200803194029A800240803194029A8078A
:1011B0000318E1287F30A802031C402903194029A5
:1011C000E5288130A807031840292808F700F8010E
:1011D000F901FA012108AC00AC172208AB00230882
:1011E000AA001830A800A9012A1C0E292708FA070E
:1011F000031C0029F90A031D0029F80A0319A9177D
:101200002608F907031C0729F80A0319A917250856
:10121000A200A2172208F8070318A917A90DF80CB5
:10122000F90CFA0CAC0CAB0CAA0C0310A80BF328AD
:101230000130F70703184029F81B2529AC0DFA0DDA
:10124000F90DF80DF70303194029AC1F3629FA0AE6
:10125000031D3629F90A031D3629F80A031D36290C
:10126000F80CF90CFA0CF70A031940292108A90017
:101270002508A906A91F3E29F8174429F81344296F
:10128000F701F801F901FA017A08FE007908FD007A
:101290007808FC007708FB0083127E088316A700FD
:1012A0007D08A6007C08A5007B08A400AB01AA016C
:1012B000A901A8018A11831277228A15031C8F299C
:1012C0007B08F7007C08F8007D08F9007E08FA002A
:1012D000F8137A088316A3007908A2007808A10001
:1012E0007708A0002308A7002208A6002108A5006F
:1012F0002008A400AB01AA012030A9008230A80078
:101300008A11831277228A15031C8B29FE01FD01A5
:10131000FC01FB018F29FE01FD01FC01FB015408CA
:1013200003199C29013A0319A429033A0319DE2958
:10133000013A03191A2A9C2AD5010330D400F70177
:10134000F801F901FA01A12A7B08F7007C08F800EE
:101350007D08F9007E08FA00F8137A088316A300C6
:101360007908A2007808A1007708A000A701A601CB
:101370002030A5008330A4002308AB002208AA0077
:101380002108A9002008A8008A11831277228A1553
:101390000318CC29031DD9290230D400D5017B08BC
:1013A000F7007C08F8007D08F9007E08FA00A12A01
:1013B000DE29F701F801F901FA01A12A7B08F700FB
:1013C0007C08F8007D08F9007E08FA00F8137A0816
:1013D0008316A3007908A2007808A1007708A0006E
:1013E0002308A7002208A6002108A5002008A400C1
:1013F000AB01AA012030A9008230A8008A11831213
:1014000077228A15031C112AD5010330D4007B08EA
:10141000F7007C08F8007D08F9007E08FA00A12A90
:101420001A2A7B08F7007C08F8007D08F9007E087E
:10143000FA00A12A7B08F7007C08F8007D08F90073
:101440007E08FA00F8137A088316A3007908A20030
:101450007808A1007708A0002308A7002208A600AA
:101460002108A5002008A400AB01AA012030A90092
:101470008230A8008A11831277228A15031C5B2A06
:10148000D50A55081D3C0318552A8A11FA218A15D8
:101490007808CF007708CE000130D400D501F701DD
:1014A000F801F901FA01A12A5A2AF701F801F90114
:1014B000FA01A12A9C2A7B08F7007C08F8007D0825
:1014C000F9007E08FA00F8137A088316A300790859
:1014D000A2007808A1007708A000A701A60120308B
:1014E000A5008330A4002308AB002208AA0021082D
:1014F000A9002008A8008A11831277228A150318F0
:10150000832A031D902A0230D400D5017B08F700FE
:101510007C08F8007D08F9007E08FA00A12A9C2AC0
:10152000D5010230D4007B08F7007C08F8007D0864
:10153000F9007E08FA00A12AD401F701F801F901A7
:10154000FA018A150A16D72A80308318F206831604
:10155000A201A30183126E088316A1007208A106DE
:1015600083126D080319A62B8316A000F7007108DB
:101570000319B02BA0020319462B031CFE2A720884
:10158000A600A6177308A5007408A400A301031001
:10159000A60CA50CA40CA30CA00BC62AA11FD32A31
:1015A0002214C82B221020102216703084008313BE
:1015B000DD2B2212A11BE62A201CF12AA60CA50C69
:1015C000A40CA30CF70A0319C32BF12AA61BF42AB7
:1015D0000310A30DA40DA50DA60DF7030319C32B2E
:1015E000E62A2217682B221383126E088316A100A5
:1015F000A11FFC2AA617BC2BA613BC2B7108A000A8
:10160000F70083126D088316A00283126E088316FA
:10161000A600A61783126F088316A5007008A40001
:10162000A3010310A60CA50CA40CA30CA00B102B5B
:10163000A11F1D2BA214C82BA2102010A2167430BB
:1016400084008313DD2BA212A11B302B201C3B2B0B
:10165000A60CA50CA40CA30CF70A0319C32B3B2B57
:10166000A61B3E2B0310A30DA40DA50DA60DF7037D
:101670000319C32B302BA217682BA2137208A100E9
:10168000A11F442BA617BC2BA613BC2B7208A600C7
:10169000A6177308A5007408A400A11F532BA61356
:1016A0002215C82B2211A30120107030840083134F
:1016B000DD2BA11B7E2B83126E088316A100201C3C
:1016C000682BA60CA50CA40CA30CF70A0319C32BBA
:1016D000A31F792BA40A031D792BA50A031D792BBF
:1016E000A60A031D792BA60CA50CA40CF70A031956
:1016F000C32B221BF32AA21B3D2B9F2B8030A60657
:10170000A61F862BC82B7208A100952B83126E088A
:101710008316A100A608031D952BA508031D952B74
:10172000A408031D952BF701BC2BA61B9F2B0310B0
:10173000A30DA40DA50DA60DF70B952BC32BA11F73
:10174000A32BA617BC2BA613BC2B83127108F70082
:1017500072088316A6007308A5007408A400BC2BA9
:1017600083126D08F7006E088316A60083126F08B7
:101770008316A5007008A4002608F8002508F900C3
:101780002408FA00FB2BF701F801F901FA01FB2B01
:10179000A301A409A509A609A309A30A031DD62B21
:1017A000A40A031DD62BA50A0319A60A2218D22AB9
:1017B000A2181C2B2219522B832B0008A407031CF0
:1017C000E72BA50A031DE72BA60A0319201484039F
:1017D0000008A507031CEF2BA60A03192014840395
:1017E0000008801F803AA60703182014221AD92A5D
:1017F000A21A232B592B831208006D08B63CED006A
:10180000FA016E08F100EE170310EE0CEF0CF00C6D
:10181000FA0CF90CF80CF70CED0B042CF11F1B2C37
:10182000F709F809F909FA09F70A0319F80A031977
:10183000F90A0319FA0A080083166708F801660214
:101840000318252C6608F700312CF7010830E80052
:10185000E60DF70D670877020318F700F80DE80B9F
:10186000282C83120800780883166408E600643088
:10187000E70083121C2477088316E40078083030D0
:10188000031D492CE51C562CE519562C651A2030F1
:101890004C2CE51165126514F807780883120317BC
:1018A00090008A110313EE278A1583166408E60058
:1018B0000A30E70083121C2477088316E4007808B6
:1018C0003030031D692CE519732C651C732C651AC7
:1018D0002030F80778088312031790008A11031349
:1018E000EE278A1583163030E40764088312031745
:1018F00090008A110313EE278A1508000408831646
:10190000E800E71F902CE803E816E409E509E6097A
:10191000E709E40A0319E50A0319E60A0319E70AC5
:101920003B30EF009A30EE00CA30ED00EC010A3097
:10193000EA008314E43084008313670883120317DA
:10194000930083160313660883120317920083160D
:1019500003136508831203179100831603136408A9
:10196000831203179000831603136F088312031763
:101970009700831603136E088312031796008316CD
:1019800003136D08831203179500831603136C0865
:101990008312031794008A110313A9218A1578086A
:1019A000F708031DEA2C83166A08013A031DDA2C96
:1019B0008312EA2C68080319ED2C0F396A02031907
:1019C000E32C03181B2DE81B1B2D681BED2C20306E
:1019D000112D831220308316E805E81EFE2CE81234
:1019E0007708E8002D308312031790008A11031343
:1019F000EE278A1583166808F700E8013030E81EE4
:101A0000112DE8127708E8002D308312031790009B
:101A10008A110313EE278A1583166808F700E80178
:101A20003030F70777088312031790008A110313E9
:101A3000EE278A15831683106F088312031793000D
:101A4000831603136E088312031792008316031381
:101A50006D08831203179100831603136C08831219
:101A6000031790009701960195010A3094008A119E
:101A70000313A9218A157A088316EF007908EE006E
:101A80007808ED007708EC00EA0B992C8312080027
:101A900083166010E101A0018312ED08031D772D6C
:101AA000EE08031D772DEF08031D772DF008031DA9
:101AB000772DF108031D772DF208031D772DF3080C
:101AC000031D772DF408031D772DF508031D772DD1
:101AD000F608031D772DFB08031D772DFC08031D59
:101AE000772DFD08031D772DFE080319762FED08CD
:101AF0000319B42DA03083166107E200E301031837
:101B0000E30A63088312D900831662088312D8009F
:101B10005430031790008A110313EE278A153A30C8
:101B2000031790008A110313EE278A156D08831698
:101B3000E4001B30E50083123324203003179000AB
:101B40008A110313EE278A1583166208831258023E
:101B5000F7005908FA0083166308031C630FFA02A2
:101B60007708E10760148312EE080319F12DA03005
:101B700083166107E200E3010318E30A6308831296
:101B8000D900831662088312D800483003179000EA
:101B90008A110313EE278A153A30031790008A1131
:101BA0000313EE278A156E088316E4001B30E50048
:101BB000831233242030031790008A110313EE2779
:101BC0008A158316620883125802F7005908FA0032
:101BD00083166308031C630FFA027708E107601499
:101BE0008312EF08031DFD2DF008031DFD2DF108E4
:101BF000031DFD2DF2080319462EA0308316610740
:101C0000E200E3010318E30A63088312D900831694
:101C100062088312D8004830031790008A1103131A
:101C2000EE278A155230031790008A110313EE270E
:101C30008A153A30031790008A110313EE278A158C
:101C40004130840072088316E7007108E6007008CE
:101C5000E50083126F088316E40083127E2420308F
:101C6000031790008A110313EE278A158316620862
:101C700083125802F7005908FA0083166308031C00
:101C8000630FFA027708E10760148312F308031D5B
:101C9000522EF408031D522EF508031D522EF6088D
:101CA00003190B2FA03083166107E200E30103182C
:101CB000E30A63088312D900831662088312D800EE
:101CC000043003178D0000308F0003100530831699
:101CD0000313E40083120B088316E50083128B13B1
:101CE000831603178C170C14000000000313E51F64
:101CF0007C2E83128B1783160318B92E83120317B9
:101D00000C087F3983160313E500831203170D08AF
:101D100083160313E600831203170F0883160313B9
:101D2000E70065088312031790008A110313EE275A
:101D30008A1583166608831203178D008316031312
:101D40006708831203178F0003130B088316E8003C
:101D500083128B13831603178C170C1400000000DA
:101D60000313E81FB62E83128B178316E40BB92ECC
:101D7000E82E831203170C0D0E0D7F398316031303
:101D8000E500831203170D0883160313E600831280
:101D900003170F0883160313E70065088312031760
:101DA00090008A110313EE278A15831666088312A2
:101DB00003178D00831603136708831203178F0020
:101DC0008D0A03198F0A031083160313E40B6A2E7E
:101DD000413084007608E7007508E6007408E500E5
:101DE0007308E40083127E242030031790008A11C8
:101DF0000313EE278A158316620883125802F70030
:101E00005908FA0083166308031C630FFA02770867
:101E1000E10760148312FB08031D172FFC08031D44
:101E2000172FFD08031D172FFE080319502FA03090
:101E300083166107E200E3010318E30A63088312D3
:101E4000D900831662088312D80057300317900018
:101E50008A110313EE278A153A30031790008A116E
:101E60000313EE278A15413084007E088316E700AD
:101E70007D08E6007C08E5007B08E40083127E24F0
:101E80008316620883125802F7005908FA00831675
:101E90006308031C630FFA027708E10760148312DA
:101EA0008316601C752FA0306107E200E301031860
:101EB000E30A63088312D900831662088312D800EC
:101EC0000A30031790008A110313EE278A15831630
:101ED000620883125802F7005908FA008316630853
:101EE000031C630FFA027708E10783128316601C54
:101EF0009C2FE301A030E2006308FA00620884002E
:101F000083137A188317800803199C2F6308FA003B
:101F1000620884008313631883170008E4008312A7
:101F20000C1E902F99008530F700F70B952F831624
:101F3000E20A0319E30A7C2F83128A150A16BE2BC4
:10200000F008031D0D28EF08031D0D28EE08031D21
:102010000D286D08633C031816287208023C031D46
:102020001628F001EF01EE016330ED00F008031D0A
:102030002728EF08031D27286E08023C03183128C3
:10204000FF3A031D27286D08E73C03183128720862
:10205000033C031D3128F001EF010330EE00E730AF
:10206000ED00F008031D46286F08003C03185128B6
:10207000FF3A031D46286E08853C03185128FF3A95
:10208000031D46286D089F3C031851287208053C23
:10209000031D5128F0010130EF008630EE009F3023
:1020A000ED0071088316A0000A12831268220A1636
:1020B0007208023C031DCC2883107008031793009C
:1020C00003136F080317920003136E0803179100A0
:1020D00003136D08031790009701960195010A30CC
:1020E00094000A120313A9210A167A088316A30082
:1020F0007908A2007808A1007708A0003030A00776
:10210000003003180130A107003003180130A20786
:10211000003003180130A3072008AA000A12831216
:102120006F220A168314A0308400831370080317EB
:10213000930003136F080317920003136E0803172D
:10214000910003136D080317900097019601950104
:102150000A3094000A120313A9210A1683162308D1
:10216000A7002208A6002108A5002008A4003030FE
:10217000A407003003180130A50700300318013010
:10218000A607003003180130A7072408AA000A1286
:1021900083126F220A16672F7208033C031D6D2AF3
:1021A000F008031DDD28EF08031DDD28EE08031DE0
:1021B000DD286D08633C0318BA29831070080317E3
:1021C000930003136F080317920003136E0803179D
:1021D000910003136D080317900097019601950174
:1021E000643094000A120313A9210A167A08831690
:1021F000A3007908A2007808A1007708A000303079
:10220000A007003003180130A10700300318013087
:10221000A207003003180130A3072008AA000A1201
:1022200083126F220A168314A0308400831370086F
:102230000317930003136F080317920003136E082C
:102240000317910003136D0803179000970196017F
:102250009501643094000A120313A9210A1683160B
:102260002308A7002208A6002108A5002008A40032
:10227000A9010408A8002910831B2914831027082A
:102280008312031793008316031326088312031780
:1022900092008316031325088312031791008316F7
:1022A00003132408831203179000970196019501E8
:1022B0000A3094000A120313A9210A16831628086B
:1022C00084008313291883177A08A7007908A600C9
:1022D0007808A5007708A4003030A4070030031860
:1022E0000130A507003003180130A607003003189D
:1022F0000130A7072408AA000A1283126F220A16C7
:102300008314A03084008313700803179300031311
:102310006F080317920003136E080317910003134D
:102320006D08031790009701960195010A309400FB
:102330000A120313A9210A1683162308A7002208EC
:10234000A6002108A5002008A4003030A407003012
:1023500003180130A507003003180130A60700302C
:1023600003180130A7072408AA000A1283126F225B
:102370000A166C2AF008031DC729EF08031DC72998
:10238000EE08031DC7296D08093C03183E2A2030BA
:102390008316AA000A1283126F220A16831070088D
:1023A0000317930003136F080317920003136E08BB
:1023B0000317910003136D0803179000970196010E
:1023C00095010A3094000A120313A9210A167A080B
:1023D0008316A3007908A2007808A1007708A0005E
:1023E0003030A007003003180130A1070030031877
:1023F0000130A207003003180130A3072008AA000B
:102400000A1283126F220A168314A03084008313E9
:1024100070080317930003136F0803179200031348
:102420006E080317910003136D08031790009701BE
:10243000960195010A3094000A120313A9210A1685
:1024400083162308A7002208A6002108A50020085B
:10245000A4003030A407003003180130A507003075
:1024600003180130A607003003180130A70724081D
:10247000AA000A1283126F220A166C2A20308316D1
:10248000AA000A1283126F220A1620308316AA00AD
:102490000A1283126F220A1630306D078316A000CD
:1024A00083126E088316A100003003180130A107C3
:1024B00083126F088316A200003003180130A207B0
:1024C0007008A300003003180130A3072008AA00F9
:1024D0000A1283126F220A16672F7208053C031D29
:1024E000672FF008031D822AEF08031D822A6E0859
:1024F000263C03183D2CFF3A031D822A6D080F3C31
:1025000003183D2C831070080317930003136F0802
:102510000317920003136E080317910003136D084D
:102520000317900097019601273095001030940012
:102530000A120313A9210A167A088316A300790840
:10254000A2007808A1007708A0003030A007003072
:1025500003180130A107003003180130A207003032
:1025600003180130A3072008AA000A1283126F2261
:102570000A168314A0308400831370080317930095
:1025800003136F080317920003136E0803179100DB
:1025900003136D08031790009701960127309500EB
:1025A000103094000A120313A9210A168316230877
:1025B000A7002208A6002108A5002008A400A90160
:1025C0000408A8002910831B2914831027088312EC
:1025D0000317930083160313260883120317920030
:1025E0008316031325088312031791008316031320
:1025F0002408831203179000970196010330950079
:10260000E83094000A120313A9210A168316280839
:1026100084008313291883177A08A7007908A60075
:102620007808A5007708A4003030A407003003180C
:102630000130A507003003180130A6070030031849
:102640000130A7072408AA000A1283126F220A1673
:102650008314A030840083137008031793000313BE
:102660006F080317920003136E08031791000313FA
:102670006D08031790009701960103309500E8302C
:1026800094000A120313A9210A1683162308A7002F
:102690002208A6002108A5002008A400A90104081A
:1026A000A8002910831B29148310270883120317FD
:1026B00093008316031326088312031792008316D0
:1026C00003132508831203179100831603132408AC
:1026D00083120317900097019601950164309400CE
:1026E0000A120313A9210A168316280884008313EB
:1026F000291883177A08A7007908A6007808A5008A
:102700007708A4003030A407003003180130A50773
:10271000003003180130A607003003180130A70766
:102720002408AA000A1283126F220A168314A0300A
:102730008400831370080317930003136F080317B3
:10274000920003136E080317910003136D0803171B
:102750009000970196019501643094000A120313CA
:10276000A9210A1683162308A7002208A60021081B
:10277000A5002008A400A9010408A8002910831BB3
:102780002914831027088312031793008316031359
:102790002608831203179200831603132508831259
:1027A0000317910083160313240883120317900064
:1027B0009701960195010A3094000A120313A9218A
:1027C0000A168316280884008313291883177A08A9
:1027D000A7007908A6007808A5007708A400303083
:1027E000A407003003180130A5070030031801309A
:1027F000A607003003180130A7072408AA000A1210
:1028000083126F220A168314A03084008313700889
:102810000317930003136F080317920003136E0846
:102820000317910003136D08031790009701960199
:1028300095010A3094000A120313A9210A1683167F
:102840002308A7002208A6002108A5002008A4004C
:102850003030A407003003180130A50700300318FA
:102860000130A607003003180130A7072408AA008A
:102870000A1283126F220A16672FF008031D4E2CCE
:10288000EF08031D4E2C6E08023C0318A12DFF3AE1
:10289000031D4E2C6D08E73C0318A12D2030831634
:1028A000AA000A1283126F220A16831070080317F7
:1028B000930003136F080317920003136E080317A6
:1028C000910003136D0803179000970196010330E0
:1028D0009500E83094000A120313A9210A167A0819
:1028E0008316A3007908A2007808A1007708A00049
:1028F0003030A007003003180130A1070030031862
:102900000130A207003003180130A3072008AA00F5
:102910000A1283126F220A168314A03084008313D4
:1029200070080317930003136F0803179200031333
:102930006E080317910003136D08031790009701A9
:10294000960103309500E83094000A120313A92180
:102950000A1683162308A7002208A6002108A5004E
:102960002008A400A9010408A8002910831B291429
:102970008310270883120317930083160313260876
:10298000831203179200831603132508831203177B
:1029900091008316031324088312031790009701F4
:1029A00096019501643094000A120313A9210A16B6
:1029B0008316280884008313291883177A08A70030
:1029C0007908A6007808A5007708A4003030A4078D
:1029D000003003180130A507003003180130A607A6
:1029E000003003180130A7072408AA000A12831236
:1029F0006F220A168314A030840083137008031713
:102A0000930003136F080317920003136E08031754
:102A1000910003136D08031790009701960195012B
:102A2000643094000A120313A9210A16831623089E
:102A3000A7002208A6002108A5002008A400A901DB
:102A40000408A8002910831B291483102708831267
:102A500003179300831603132608831203179200AB
:102A6000831603132508831203179100831603139B
:102A700024088312031790009701960195010A30EC
:102A800094000A120313A9210A1683162808840049
:102A90008313291883177A08A7007908A6007808F5
:102AA000A5007708A4003030A407003003180130D7
:102AB000A507003003180130A607003003180130C5
:102AC000A7072408AA000A1283126F220A16831489
:102AD000A0308400831370080317930003136F085A
:102AE0000317920003136E080317910003136D0878
:102AF000031790009701960195010A3094000A127D
:102B00000313A9210A1683162308A7002208A6008A
:102B10002108A5002008A4003030A40700300318C5
:102B20000130A507003003180130A6070030031854
:102B30000130A7072408AA000A1283126F220A167E
:102B4000672FF008031DAE2DEF08031DAE2DEE0814
:102B5000031DAE2D6D08633C0318992E203083169B
:102B6000AA000A1283126F220A1620308316AA00C6
:102B70000A1283126F220A1683107008031793003B
:102B800003136F080317920003136E0803179100D5
:102B900003136D08031790009701960195016430A7
:102BA00094000A120313A9210A167A088316A300B7
:102BB0007908A2007808A1007708A0003030A007AB
:102BC000003003180130A107003003180130A207BC
:102BD000003003180130A3072008AA000A1283124C
:102BE0006F220A168314A030840083137008031721
:102BF000930003136F080317920003136E08031763
:102C0000910003136D080317900097019601950139
:102C1000643094000A120313A9210A1683162308AC
:102C2000A7002208A6002108A5002008A400A901E9
:102C30000408A8002910831B291483102708831275
:102C400003179300831603132608831203179200B9
:102C500083160313250883120317910083160313A9
:102C600024088312031790009701960195010A30FA
:102C700094000A120313A9210A1683162808840057
:102C80008313291883177A08A7007908A600780803
:102C9000A5007708A4003030A407003003180130E5
:102CA000A507003003180130A607003003180130D3
:102CB000A7072408AA000A1283126F220A16831497
:102CC000A0308400831370080317930003136F0868
:102CD0000317920003136E080317910003136D0886
:102CE000031790009701960195010A3094000A128B
:102CF0000313A9210A1683162308A7002208A60099
:102D00002108A5002008A4003030A40700300318D3
:102D10000130A507003003180130A6070030031862
:102D20000130A7072408AA000A1283126F220A168C
:102D3000672FF008031DA62EEF08031DA62EEE0830
:102D4000031DA62E6D08093C03182B2F2030831677
:102D5000AA000A1283126F220A1620308316AA00D4
:102D60000A1283126F220A1620308316AA000A1252
:102D700083126F220A16831070080317930003133F
:102D80006F080317920003136E08031791000313D3
:102D90006D08031790009701960195010A30940081
:102DA0000A120313A9210A167A088316A3007908C8
:102DB000A2007808A1007708A0003030A0070030FA
:102DC00003180130A107003003180130A2070030BA
:102DD00003180130A3072008AA000A1283126F22E9
:102DE0000A168314A030840083137008031793001D
:102DF00003136F080317920003136E080317910063
:102E000003136D08031790009701960195010A308E
:102E100094000A120313A9210A1683162308A70097
:102E20002208A6002108A5002008A4003030A4072D
:102E3000003003180130A507003003180130A60741
:102E4000003003180130A7072408AA000A128312D1
:102E50006F220A16672F20308316AA000A128312E7
:102E60006F220A1620308316AA000A1283126F22DC
:102E70000A1620308316AA000A1283126F220A163D
:102E800020308316AA000A1283126F220A163030ED
:102E90006D078316A00083126E088316A100003010
:102EA00003180130A10783126F088316A2000030B7
:102EB00003180130A2077008A30000300318013086
:102EC000A3072008AA000A1283126F220A160D30E7
:082ED000F700F70B692F080061
:1030000003081F398300A101A001A301A20124101C
:10301000A501A701A601A901A801A410AA01AB015D
:10302000AC01CD012411CF01CE01D301D201D101D8
:103030007F30D000D401D5010C3083169900A23026
:103040009800903083129800D901D801A4118316FA
:103050001F149F141F159F1107309C0083138312A8
:10306000AD01AE01AF01B001B101B201B301B401D4
:10307000B501B601B701B801B901BA01BB01BC0184
:10308000BD01BE01BF01C001C101C201C301C40134
:10309000C501C601C701C801C901CA01CB01CC01E4
:1030A000D601D70100308316880018308700FF3022
:1030B0008600013085000A128A11831260280A16E0
:1030C0008A1532308316AC000A128A1183122E2020
:1030D0000A168A150A128A11EE280A168A150A1289
:1030E0008A1144290A168A15DA015A08043C031C7D
:1030F00089280A128A1147210A168A150A3083166E
:10310000AC000A128A1183122E200A168A15DA0AD6
:1031100075280130ED000A128A115F220A168A15FD
:1031200064308316AC000A128A1183122E200A160C
:103130008A1580308316A0000A128A118312682231
:103140000A168A1554308316AA000A128A118312AD
:103150006F220A168A153A308316AA000A128A11BB
:1031600083126F220A168A1520308316AA000A12CB
:103170008A1183126F220A168A1520308316AA003C
:103180000A128A1183126F220A168A154330831697
:10319000AA000A128A1183126F220A168A15203099
:1031A0008316AA000A128A1183126F220A168A1540
:1031B00020308316AA000A128A1183126F220A167F
:1031C0008A1520308316AA000A128A1183126F22F0
:1031D0000A168A1548308316AA000A128A11831229
:1031E0006F220A168A153A308316AA000A128A112B
:1031F00083126F220A168A1520308316AA000A123B
:103200008A1183126F220A168A1520308316AA00AB
:103210000A128A1183126F220A168A152530831624
:10322000AA000A128A1183126F220A168A15C03068
:103230008316A0000A128A11831268220A168A15C0
:1032400048308316AA000A128A1183126F220A16C6
:103250008A1552308316AA000A128A1183126F222D
:103260000A168A153A308316AA000A128A118312A6
:103270006F220A168A1520308316AA000A128A11B4
:1032800083126F220A168A1520308316AA000A12AA
:103290008A1183126F220A168A1520308316AA001B
:1032A0000A128A1183126F220A168A156230831657
:1032B000AA000A128A1183126F220A168A15703028
:1032C0008316AA000A128A1183126F220A168A151F
:1032D0006D308316AA000A128A1183126F220A1611
:1032E0008A1590308316A0000A128A118312682270
:1032F0000A168A1553308316AA000A128A118312FD
:103300006F220A168A1570308316AA000A128A11D3
:1033100083126F220A168A154F308316AA000A12EA
:103320008A1183126F220A168A1532308316AA0078
:103330000A128A1183126F220A168A153A308316EE
:10334000AA000A128A1183126F220A168A152030E7
:103350008316AA000A128A1183126F220A168A158E
:1033600020308316AA000A128A1183126F220A16CD
:103370008A1520308316AA000A128A1183126F223E
:103380000A168A1525308316AA000A128A1183129A
:103390006F220A168A15D0308316A0000A128A11ED
:1033A000831268220A168A1557308316AA000A1259
:1033B0008A1183126F220A168A1565308316AA00B5
:1033C0000A128A1183126F220A168A15693083162F
:1033D000AA000A128A1183126F220A168A15673010
:1033E0008316AA000A128A1183126F220A168A15FE
:1033F00068308316AA000A128A1183126F220A16F5
:103400008A1574308316AA000A128A1183126F2259
:103410000A168A153A308316AA000A128A118312F4
:103420006F220A168A1520308316AA000A128A1102
:1034300083126F220A168A1520308316AA000A12F8
:103440008A1183126F220A168A1520308316AA0069
:103450000A128A1183126F220A168A1520308316E7
:10346000AA000A128A1183126F220A168A152030C6
:103470008316AA000A128A1183126F220A168A156D
:1034800067308316AA000A128A1183126F220A1665
:103490008A15DC01DB01DE01DD01E001DF01E20173
:1034A000E101E301E401E801E701E601E501A41916
:1034B000932A0130ED000A128A115F220A168A153A
:1034C0000830ED00FA308316AC000A128A1183121C
:1034D0002E200A168A15ED0B622A1430ED00FA3000
:1034E0008316AC000A128A1183122E200A168A153E
:1034F000ED0B6F2AF001EF017830EE008330ED0024
:103500000A128A11A32B0A168A150430ED00FA302C
:103510008316AC000A128A1183122E200A168A150D
:10352000ED0B872AA415DB08031D9E2ADC08031D6A
:103530009E2A0A128A11222C0A168A1501305B076C
:10354000ED005C08EE000318EE0ADB01DC01DD088B
:10355000031DB82ADE08031DB82AEE016330ED0012
:10356000F0016430EF000A128A11082F0A168A153A
:1035700001305D07ED005E08EE000318EE0A6E08EC
:10358000F0006D08EF00F2016430F1000A12002033
:103590000A167708DD007A08DE00DF08031D482BD5
:1035A000E008031D482B0130ED000A1225280A16F9
:1035B0007A08EC007908EB007808EA007708E9005F
:1035C0008316A701A601A501A40183126C08831626
:1035D000AB0083126B088316AA0083126A08831655
:1035E000A900831269088316A8000A128A1183129F
:1035F00077220A168A150318FF2A031D242B83102D
:103600006C08F0006B08EF006A08EE006908ED0036
:10361000F401F301F2017E30F1000A12A4220A162D
:103620007A08F0007908EF007808EE007708ED00DE
:103630000A12FD230A167A08E8007908E7007808DC
:10364000E6007708E500482B83146C08F0006B084F
:10365000EF006A08EE006908ED00F401F301F201E1
:103660007E30F1000A12A4220A167A08F0007908C6
:10367000EF007808EE007708ED000A12FD230A1625
:103680007A08E8007908E7007808E6007708E5009E
:1036900001305F07ED006008EE000318EE0A6E08C7
:1036A000F0006D08EF00F2013230F1000A12002044
:1036B0000A167708DF007A08E000E108031DBF2B37
:1036C000E208031DBF2BF001EF01EE016308ED00DE
:1036D0008230F1000230F2008A1100208A15F001D8
:1036E000EF01EE016408ED008B30F1000230F200D2
:1036F0008A1100208A15F001EF012708EE00260844
:10370000ED00C330F1000330F2008A1100208A1569
:10371000F001EF012908EE002808ED009530F100D6
:103720000330F2008A1100208A156808F00067084B
:10373000EF006608EE006508ED00D730F1000530B7
:10374000F2008A1100208A156308ED006408EE007B
:10375000F201F1012708F0002608EF00F601F5015B
:103760002908F4002808F3006808FE006708FD0037
:103770006608FC006508FB000A12482D0A16013095
:103780006107ED006208EE000318EE0A6E08F00013
:103790006D08EF00F2013230F1000A1200200A1623
:1037A0007708E1007A08E20005308316AC000A12BF
:0E37B0008A1183122E200A168A15572A6300EA
:02400E00422F3F
:00000001FF
;PIC16F877A
;CRC=9656  CREATED="29-May-25 11:55"
